{
  "contractName": "air",
  "abi": [
    {
      "inputs": [],
      "payable": false,
      "stateMutability": "nonpayable",
      "type": "constructor"
    },
    {
      "anonymous": false,
      "inputs": [
        {
          "indexed": true,
          "internalType": "address",
          "name": "_from",
          "type": "address"
        },
        {
          "indexed": false,
          "internalType": "string",
          "name": "_message",
          "type": "string"
        }
      ],
      "name": "deviceEvent",
      "type": "event"
    },
    {
      "anonymous": false,
      "inputs": [
        {
          "indexed": true,
          "internalType": "address",
          "name": "_from",
          "type": "address"
        },
        {
          "indexed": false,
          "internalType": "string",
          "name": "message",
          "type": "string"
        }
      ],
      "name": "setFileHashEvent",
      "type": "event"
    },
    {
      "constant": true,
      "inputs": [],
      "name": "currentID",
      "outputs": [
        {
          "internalType": "uint256",
          "name": "",
          "type": "uint256"
        }
      ],
      "payable": false,
      "stateMutability": "view",
      "type": "function"
    },
    {
      "constant": true,
      "inputs": [],
      "name": "getCurrentID",
      "outputs": [
        {
          "internalType": "uint256",
          "name": "",
          "type": "uint256"
        }
      ],
      "payable": false,
      "stateMutability": "view",
      "type": "function"
    },
    {
      "constant": false,
      "inputs": [],
      "name": "incrementCurrentID",
      "outputs": [],
      "payable": false,
      "stateMutability": "nonpayable",
      "type": "function"
    },
    {
      "constant": false,
      "inputs": [
        {
          "internalType": "string",
          "name": "filehash",
          "type": "string"
        }
      ],
      "name": "setSensorData",
      "outputs": [],
      "payable": false,
      "stateMutability": "nonpayable",
      "type": "function"
    },
    {
      "constant": true,
      "inputs": [],
      "name": "getSensorDataLatest",
      "outputs": [
        {
          "internalType": "string",
          "name": "",
          "type": "string"
        }
      ],
      "payable": false,
      "stateMutability": "view",
      "type": "function"
    },
    {
      "constant": true,
      "inputs": [
        {
          "internalType": "uint256",
          "name": "ID",
          "type": "uint256"
        }
      ],
      "name": "getSensorDataByID",
      "outputs": [
        {
          "internalType": "string",
          "name": "",
          "type": "string"
        }
      ],
      "payable": false,
      "stateMutability": "view",
      "type": "function"
    },
    {
      "constant": true,
      "inputs": [
        {
          "internalType": "address",
          "name": "addressToAdd",
          "type": "address"
        }
      ],
      "name": "devicePresent",
      "outputs": [
        {
          "internalType": "bool",
          "name": "",
          "type": "bool"
        }
      ],
      "payable": false,
      "stateMutability": "view",
      "type": "function"
    },
    {
      "constant": false,
      "inputs": [
        {
          "internalType": "address",
          "name": "addressToAdd",
          "type": "address"
        }
      ],
      "name": "registerDevice",
      "outputs": [],
      "payable": false,
      "stateMutability": "nonpayable",
      "type": "function"
    },
    {
      "constant": false,
      "inputs": [
        {
          "internalType": "address",
          "name": "addressToRemove",
          "type": "address"
        }
      ],
      "name": "deregisterDevice",
      "outputs": [],
      "payable": false,
      "stateMutability": "nonpayable",
      "type": "function"
    }
  ],
  "bytecode": "0x608060405234801561001057600080fd5b50600160008190555033600160006101000a81548173ffffffffffffffffffffffffffffffffffffffff021916908373ffffffffffffffffffffffffffffffffffffffff160217905550610bf3806100696000396000f3fe608060405234801561001057600080fd5b50600436106100935760003560e01c80635ba961fb116100665780635ba961fb1461029b5780636dc7b9a5146102a5578063ef1e7df3146102e9578063f418431614610307578063f7062c1b1461036357610093565b80631c75cfb4146100985780631ca1d34e146100b65780631ea7c881146101395780632a73542c146101f4575b600080fd5b6100a06103a7565b6040518082815260200191505060405180910390f35b6100be6103ad565b6040518080602001828103825283818151815260200191508051906020019080838360005b838110156100fe5780820151818401526020810190506100e3565b50505050905090810190601f16801561012b5780820380516001836020036101000a031916815260200191505b509250505060405180910390f35b6101f26004803603602081101561014f57600080fd5b810190808035906020019064010000000081111561016c57600080fd5b82018360208201111561017e57600080fd5b803590602001918460018302840111640100000000831117156101a057600080fd5b91908080601f016020809104026020016040519081016040528093929190818152602001838380828437600081840152601f19601f8201169050808301925050505050505091929192905050506104bf565b005b6102206004803603602081101561020a57600080fd5b810190808035906020019092919050505061061a565b6040518080602001828103825283818151815260200191508051906020019080838360005b83811015610260578082015181840152602081019050610245565b50505050905090810190601f16801561028d5780820380516001836020036101000a031916815260200191505b509250505060405180910390f35b6102a3610724565b005b6102e7600480360360208110156102bb57600080fd5b81019080803573ffffffffffffffffffffffffffffffffffffffff169060200190929190505050610737565b005b6102f16108f9565b6040518082815260200191505060405180910390f35b6103496004803603602081101561031d57600080fd5b81019080803573ffffffffffffffffffffffffffffffffffffffff169060200190929190505050610902565b604051808215151515815260200191505060405180910390f35b6103a56004803603602081101561037957600080fd5b81019080803573ffffffffffffffffffffffffffffffffffffffff169060200190929190505050610958565b005b60005481565b60606103b833610902565b156104835760006002600060016103cd6108f9565b0381526020019081526020016000209050806000018054600181600116156101000203166002900480601f0160208091040260200160405190810160405280929190818152602001828054600181600116156101000203166002900480156104765780601f1061044b57610100808354040283529160200191610476565b820191906000526020600020905b81548152906001019060200180831161045957829003601f168201915b50505050509150506104bc565b6040518060400160405280601581526020017f444556494345204e4f542052454749535445524544000000000000000000000081525090505b90565b6104c833610902565b156105975760006104d76108f9565b9050600060026000838152602001908152602001600020905082816000019080519060200190610508929190610b19565b50610511610724565b3373ffffffffffffffffffffffffffffffffffffffff167f0c45bd9ba459f9f5bcde0373f3123857858fb6a441873b2df26137e2bbd279da6040518080602001828103825260138152602001807f46494c45484153482054584e2043414c4c45440000000000000000000000000081525060200191505060405180910390a25050610617565b3373ffffffffffffffffffffffffffffffffffffffff167f0c45bd9ba459f9f5bcde0373f3123857858fb6a441873b2df26137e2bbd279da6040518080602001828103825260158152602001807f444556494345204e4f542052454749535445524544000000000000000000000081525060200191505060405180910390a25b50565b606061062533610902565b156106e6576000600260008481526020019081526020016000209050806000018054600181600116156101000203166002900480601f0160208091040260200160405190810160405280929190818152602001828054600181600116156101000203166002900480156106d95780601f106106ae576101008083540402835291602001916106d9565b820191906000526020600020905b8154815290600101906020018083116106bc57829003601f168201915b505050505091505061071f565b6040518060400160405280601581526020017f444556494345204e4f542052454749535445524544000000000000000000000081525090505b919050565b6000808154809291906001019190505550565b600160009054906101000a900473ffffffffffffffffffffffffffffffffffffffff1673ffffffffffffffffffffffffffffffffffffffff163373ffffffffffffffffffffffffffffffffffffffff161461079157600080fd5b61079a81610902565b1561081f578073ffffffffffffffffffffffffffffffffffffffff167f8a54fdf75efac9c6224b47a004b0f1613d206d1a60f8f0ceecd6724aeab8c8ae6040518080602001828103825260198152602001807f44455649434520414c524541445920524547495354455245440000000000000081525060200191505060405180910390a25b6001600360008373ffffffffffffffffffffffffffffffffffffffff1673ffffffffffffffffffffffffffffffffffffffff16815260200190815260200160002060006101000a81548160ff0219169083151502179055508073ffffffffffffffffffffffffffffffffffffffff167f8a54fdf75efac9c6224b47a004b0f1613d206d1a60f8f0ceecd6724aeab8c8ae6040518080602001828103825260168152602001807f53554345535346554c4c5920524547495354455245440000000000000000000081525060200191505060405180910390a250565b60008054905090565b6000600360008373ffffffffffffffffffffffffffffffffffffffff1673ffffffffffffffffffffffffffffffffffffffff16815260200190815260200160002060009054906101000a900460ff169050919050565b600160009054906101000a900473ffffffffffffffffffffffffffffffffffffffff1673ffffffffffffffffffffffffffffffffffffffff163373ffffffffffffffffffffffffffffffffffffffff16146109b257600080fd5b6109bb81610902565b610a3f578073ffffffffffffffffffffffffffffffffffffffff167f8a54fdf75efac9c6224b47a004b0f1613d206d1a60f8f0ceecd6724aeab8c8ae6040518080602001828103825260158152602001807f444556494345204e4f542052454749535445524544000000000000000000000081525060200191505060405180910390a25b6000600360008373ffffffffffffffffffffffffffffffffffffffff1673ffffffffffffffffffffffffffffffffffffffff16815260200190815260200160002060006101000a81548160ff0219169083151502179055508073ffffffffffffffffffffffffffffffffffffffff167f8a54fdf75efac9c6224b47a004b0f1613d206d1a60f8f0ceecd6724aeab8c8ae6040518080602001828103825260188152602001807f53554345535346554c4c5920444552454749535445524544000000000000000081525060200191505060405180910390a250565b828054600181600116156101000203166002900490600052602060002090601f016020900481019282601f10610b5a57805160ff1916838001178555610b88565b82800160010185558215610b88579182015b82811115610b87578251825591602001919060010190610b6c565b5b509050610b959190610b99565b5090565b610bbb91905b80821115610bb7576000816000905550600101610b9f565b5090565b9056fea265627a7a723158205f2e1f4e795f7ba1ddaf138227f59b45b2e12e5631f927388976db507b72a79864736f6c63430005100032",
  "source": "pragma solidity >=0.4.0 <0.6.0;\n\ncontract air {\n    // Event after registration/de−registration\n    event deviceEvent(address indexed _from, string _message);\n    event setFileHashEvent(address indexed _from, string message);\n\n    // Struct to store the file−hashes which store the actual sensor data\n    struct SensorData {\n        string filehash;\n    }\n\n    uint public currentID;\n    address private createdBy;\n\n    // Map the struct to an id\n    mapping(uint=> SensorData) sensorStore;\n    // Store registered addresses in mapping\n    mapping (address=> bool) private trustedAddresses;\n\n    // Constructor for the smart-contract\n    constructor() public {\n        currentID = 1;\n        createdBy = msg.sender;\n    }\n\n    // Modify some functions to be executed only by the Contract creator\n    modifier ownerOnly{\n        require(msg.sender == createdBy);\n        _;\n    }\n\n    // Function to get the currentID\n    function getCurrentID() public view returns(uint) {\n        return currentID;\n    }\n    // Function to increment the ID used internally for managing file-hashes\n    function incrementCurrentID() public  {\n        currentID++;\n    }\n\n    // Function to store the filehash from swarm\n    function setSensorData(string memory filehash) public {\n        if(devicePresent(msg.sender)) {\n            uint idToStore = getCurrentID();\n            SensorData storage sensorReadings = sensorStore[idToStore];\n            sensorReadings.filehash  = filehash;\n            incrementCurrentID();\n            emit setFileHashEvent(msg.sender,\"FILEHASH TXN CALLED\");\n        } else{\n            emit setFileHashEvent(msg.sender,\"DEVICE NOT REGISTERED\");\n        }\n    }\n\n    // Function to get latest stored data\n    function getSensorDataLatest() public view returns (string memory){\n        if(devicePresent(msg.sender)) {\n            SensorData storage sensorReadings = sensorStore[getCurrentID() - 1];\n            return sensorReadings.filehash;\n        }\n        return \"DEVICE NOT REGISTERED\";\n    }\n\n    // Function to get data stored under some ID\n    function getSensorDataByID(uint ID) public view returns (string memory) {\n        if(devicePresent(msg.sender)) {\n            SensorData storage sensorReadings = sensorStore[ID];\n            return sensorReadings.filehash;\n        }\n        return \"DEVICE NOT REGISTERED\";\n    }\n\n    //function to check if device is registered\n    function devicePresent(address addressToAdd) public view returns (bool){\n        return trustedAddresses[addressToAdd];\n    }\n\n    //register IoT device\n    function registerDevice(address addressToAdd) ownerOnly public  {\n        if(devicePresent(addressToAdd)) {\n            emit deviceEvent(addressToAdd, \"DEVICE ALREADY REGISTERED\");\n        }\n        trustedAddresses[addressToAdd] = true;\n        emit deviceEvent(addressToAdd, \"SUCESSFULLY REGISTERED\");\n    }\n\n\n    //deregister IoT device\n    function deregisterDevice(address addressToRemove) ownerOnly public {\n        if(!devicePresent(addressToRemove)) {\n            emit deviceEvent(addressToRemove, \"DEVICE NOT REGISTERED\");\n        }\n        trustedAddresses[addressToRemove] = false;\n        emit deviceEvent(addressToRemove, \"SUCESSFULLY DEREGISTERED\");\n    }\n}\n",
  "sourcePath": "/Users/alex/Documents/program/Minden_air_test_prog/contract_comparison/ethereum/contracts/air_contract_annex.sol",
  "compiler": {
    "name": "solc",
    "version": "0.5.16+commit.9c3226ce.Emscripten.clang"
  },
  "schemaVersion": "3.3.2",
  "updatedAt": "2020-11-26T08:59:58.345Z",
  "devdoc": {
    "methods": {}
  },
  "userdoc": {
    "methods": {}
  }
}