{
  "contractName": "airContract",
  "abi": [
    {
      "inputs": [],
      "payable": false,
      "stateMutability": "nonpayable",
      "type": "constructor"
    },
    {
      "anonymous": false,
      "inputs": [
        {
          "indexed": true,
          "internalType": "address",
          "name": "_from",
          "type": "address"
        },
        {
          "indexed": false,
          "internalType": "string",
          "name": "message",
          "type": "string"
        }
      ],
      "name": "setFileHashEvent",
      "type": "event"
    },
    {
      "constant": true,
      "inputs": [],
      "name": "currentID",
      "outputs": [
        {
          "internalType": "uint256",
          "name": "",
          "type": "uint256"
        }
      ],
      "payable": false,
      "stateMutability": "view",
      "type": "function"
    },
    {
      "constant": true,
      "inputs": [],
      "name": "getCurrentID",
      "outputs": [
        {
          "internalType": "uint256",
          "name": "",
          "type": "uint256"
        }
      ],
      "payable": false,
      "stateMutability": "view",
      "type": "function"
    },
    {
      "constant": false,
      "inputs": [],
      "name": "incrementCurrentID",
      "outputs": [],
      "payable": false,
      "stateMutability": "nonpayable",
      "type": "function"
    },
    {
      "constant": false,
      "inputs": [
        {
          "internalType": "string",
          "name": "_filehash",
          "type": "string"
        }
      ],
      "name": "setSensorData",
      "outputs": [],
      "payable": false,
      "stateMutability": "nonpayable",
      "type": "function"
    },
    {
      "constant": true,
      "inputs": [],
      "name": "getSensorDataLatest",
      "outputs": [
        {
          "internalType": "string",
          "name": "",
          "type": "string"
        }
      ],
      "payable": false,
      "stateMutability": "view",
      "type": "function"
    },
    {
      "constant": true,
      "inputs": [
        {
          "internalType": "uint256",
          "name": "_ID",
          "type": "uint256"
        }
      ],
      "name": "getSensorDataByID",
      "outputs": [
        {
          "internalType": "string",
          "name": "",
          "type": "string"
        }
      ],
      "payable": false,
      "stateMutability": "view",
      "type": "function"
    }
  ],
  "bytecode": "0x608060405234801561001057600080fd5b506000808190555033600160006101000a81548173ffffffffffffffffffffffffffffffffffffffff021916908373ffffffffffffffffffffffffffffffffffffffff16021790555061071c806100686000396000f3fe608060405234801561001057600080fd5b50600436106100625760003560e01c80631c75cfb4146100675780631ca1d34e146100855780631ea7c881146101085780632a73542c146101c35780635ba961fb1461026a578063ef1e7df314610274575b600080fd5b61006f610292565b6040518082815260200191505060405180910390f35b61008d610298565b6040518080602001828103825283818151815260200191508051906020019080838360005b838110156100cd5780820151818401526020810190506100b2565b50505050905090810190601f1680156100fa5780820380516001836020036101000a031916815260200191505b509250505060405180910390f35b6101c16004803603602081101561011e57600080fd5b810190808035906020019064010000000081111561013b57600080fd5b82018360208201111561014d57600080fd5b8035906020019184600183028401116401000000008311171561016f57600080fd5b91908080601f016020809104026020016040519081016040528093929190818152602001838380828437600081840152601f19601f8201169050808301925050505050505091929192905050506103b8565b005b6101ef600480360360208110156101d957600080fd5b810190808035906020019092919050505061050e565b6040518080602001828103825283818151815260200191508051906020019080838360005b8381101561022f578082015181840152602081019050610214565b50505050905090810190601f16801561025c5780820380516001836020036101000a031916815260200191505b509250505060405180910390f35b610272610626565b005b61027c610639565b6040518082815260200191505060405180910390f35b60005481565b6060600160009054906101000a900473ffffffffffffffffffffffffffffffffffffffff1673ffffffffffffffffffffffffffffffffffffffff163373ffffffffffffffffffffffffffffffffffffffff16146102f457600080fd5b6000600260006001610304610639565b0381526020019081526020016000209050806000018054600181600116156101000203166002900480601f0160208091040260200160405190810160405280929190818152602001828054600181600116156101000203166002900480156103ad5780601f10610382576101008083540402835291602001916103ad565b820191906000526020600020905b81548152906001019060200180831161039057829003601f168201915b505050505091505090565b600160009054906101000a900473ffffffffffffffffffffffffffffffffffffffff1673ffffffffffffffffffffffffffffffffffffffff163373ffffffffffffffffffffffffffffffffffffffff161461041257600080fd5b600061041c610639565b905060006002600083815260200190815260200160002090508281600001908051906020019061044d929190610642565b50610456610626565b3373ffffffffffffffffffffffffffffffffffffffff167f0c45bd9ba459f9f5bcde0373f3123857858fb6a441873b2df26137e2bbd279da846040518080602001828103825283818151815260200191508051906020019080838360005b838110156104cf5780820151818401526020810190506104b4565b50505050905090810190601f1680156104fc5780820380516001836020036101000a031916815260200191505b509250505060405180910390a2505050565b6060600160009054906101000a900473ffffffffffffffffffffffffffffffffffffffff1673ffffffffffffffffffffffffffffffffffffffff163373ffffffffffffffffffffffffffffffffffffffff161461056a57600080fd5b6000600260008481526020019081526020016000209050806000018054600181600116156101000203166002900480601f0160208091040260200160405190810160405280929190818152602001828054600181600116156101000203166002900480156106195780601f106105ee57610100808354040283529160200191610619565b820191906000526020600020905b8154815290600101906020018083116105fc57829003601f168201915b5050505050915050919050565b6000808154809291906001019190505550565b60008054905090565b828054600181600116156101000203166002900490600052602060002090601f016020900481019282601f1061068357805160ff19168380011785556106b1565b828001600101855582156106b1579182015b828111156106b0578251825591602001919060010190610695565b5b5090506106be91906106c2565b5090565b6106e491905b808211156106e05760008160009055506001016106c8565b5090565b9056fea265627a7a72315820e34cbaf4384c3c9d3c46a533b0a49a7c9fb087d3472a0cd4fbfa8f5e5e99e2db64736f6c63430005100032",
  "source": "pragma solidity >=0.4.0 <0.6.0;\n\ncontract airContract {\n\n    event setFileHashEvent(address indexed _from, string message);\n\n    // Struct to store the file−hashes which store the actual sensor data\n    struct SensorData {\n        string filehash;\n    }\n\n    uint public currentID;\n    address private createdBy;\n\n    // Map the struct to an id\n    mapping(uint=> SensorData) sensorStore;\n\n    // Constructor for the smart-contract\n    constructor() public {\n        currentID = 0;\n        createdBy = msg.sender;\n    }\n\n    // Modify some functions to be executed only by the Contract creator\n    modifier ownerOnly{\n        require(msg.sender == createdBy);\n        _;\n    }\n\n    // Function to get the currentID\n    function getCurrentID() public view returns(uint) {\n        return currentID;\n    }\n    // Function to increment the ID used internally for managing file-hashes\n    function incrementCurrentID() public  {\n        currentID++;\n    }\n\n    // Function to store the filehash from swarm\n    function setSensorData(string memory _filehash) ownerOnly public {\n        uint idToStore = getCurrentID();\n        SensorData storage sensorReadings = sensorStore[idToStore];\n        sensorReadings.filehash = _filehash;\n        incrementCurrentID();\n        emit setFileHashEvent(msg.sender,_filehash);\n    }\n\n    // Function to get latest stored data\n    function getSensorDataLatest() ownerOnly public view returns (string memory){\n        SensorData storage sensorReadings = sensorStore[getCurrentID() - 1];\n        return sensorReadings.filehash;\n    }\n\n    // Function to get data stored under some ID\n    function getSensorDataByID(uint _ID) ownerOnly public view returns (string memory) {\n        SensorData storage sensorReadings = sensorStore[_ID];\n        return sensorReadings.filehash;\n    }    \n}\n",
  "sourcePath": "/Users/alex/Documents/program/Minden_air_test_prog/contract_comparison/ethereum/contracts/airContract.sol",
  "compiler": {
    "name": "solc",
    "version": "0.5.16+commit.9c3226ce.Emscripten.clang"
  },
  "schemaVersion": "3.3.2",
  "updatedAt": "2020-11-27T07:30:18.346Z",
  "networkType": "ethereum",
  "devdoc": {
    "methods": {}
  },
  "userdoc": {
    "methods": {}
  }
}